:100000000C9450000C9485000C9485000C94850091
:100010000C9485000C9485000C9485000C9485004C
:100020000C9485000C9485000C9485000C9485003C
:100030000C9485000C9485000C9485000C9485002C
:100040000C9485000C9485000C9485000C9485001C
:100050000C9485000C9485000C9485000C9485000C
:100060000C9485000C9485000C9485000C948500FC
:100070000C9485000C9485000C9485000C948500EC
:100080000C9485000C9485000C9485000C948500DC
:100090000C9485000C9485000C9485000C948500CC
:1000A00011241FBECFEFCDBFDFE3DEBF0E945C0097
:0800B0000C947A00F894FFCFD4
:1000B80080912004806280932004809124048062CF
:1000C8008093240425E186E195E02150804090400A
:1000D800E1F7809124048F7D8093240425E186E153
:0C00E80095E0215080409040E1F7E7CF08
:1000F400EC010E948A000E948900CE010E948B00BC
:06010400CE010E948700FD
:04010A000C94000051
:04010E000E945A00F1
:0201120008954E
:0201140008954C
:0201160008954A
:00000001FF
