:100000000C9450000C948A020C948A020C948A027C
:100010000C948A020C948A020C948A020C948A0230
:100020000C948A020C948A020C948A020C948A0220
:100030000C948A020C948A020C948A020C948A0210
:100040000C948A020C948A020C948A020C948A0200
:100050000C948A020C948A020C948A020C948A02F0
:100060000C948A020C948A020C948A020C948A02E0
:100070000C948A020C948A020C948A020C948A02D0
:100080000C948A020C948A020C948A020C948A02C0
:100090000C948A020C948A020C948A020C948A02B0
:1000A00011241FBECFEFCDBFDFE3DEBF0E945C0097
:0800B0000C945302F894FFCFF9
:1000B800CF93DF93CDB7DEB76C97CDBFDEBF80E2BD
:1000C80094E020E234E0F90120812062FC012083E1
:1000D80080E294E020E234E0F90124812062FC010E
:1000E800248380E090E0AAEFB3E489839A83AB830A
:1000F800BC8324E535E540E554E469817A818B8148
:100108009C810E948302DC01CB018B8B9C8BAD8B85
:10011800BE8B20E030E040E85FE36B897C898D8905
:100128009E890E94790288232CF481E090E08F8BCD
:10013800988F3FC020E03FEF4FE757E46B897C89F9
:100148008D899E890E947E0218164CF520E030E0C9
:1001580040E251E469817A818B819C810E9483020B
:10016800DC01CB01BC01CD010E94CD01DC01CB013A
:100178008F8B988F0FC083E590E0898F9A8F898D38
:100188009A8D0197F1F7898F9A8F8F89988D0197AA
:100198008F8B988F8F89988D892B69F714C06B89FD
:1001A8007C898D899E890E94CD01DC01CB018F8BD2
:1001B800988F8F89988D8B8F9C8F8B8D9C8D0197B5
:1001C800F1F78B8F9C8F80E294E020E234E0F90114
:1001D80024812F7DFC01248380E090E0AAEFB3E422
:1001E8008D839E83AF83B88724E535E540E554E4E5
:1001F8006D817E818F8198850E948302DC01CB010D
:1002080089879A87AB87BC8720E030E040E85FE3C6
:1002180069857A858B859C850E94790288232CF4D0
:1002280081E090E08D879E873FC020E03FEF4FE759
:1002380057E469857A858B859C850E947E0218160D
:100248004CF520E030E040E251E46D817E818F8101
:1002580098850E948302DC01CB01BC01CD010E947C
:10026800CD01DC01CB018D879E870FC083E590E02F
:100278008F87988B8F8598890197F1F78F87988B4F
:100288008D859E8501978D879E878D859E85892B77
:1002980069F714C069857A858B859C850E94CD0194
:1002A800DC01CB018D879E878D859E85898B9A8BF6
:0E02B80089899A890197F1F7898B9A8B09CF72
:1002C6000FC00E94650238F00E946C0220F0952350
:1002D60011F00C9473020C94870211240C945F02A3
:1002E6000E94200270F3959FC1F3950F50E0551FB1
:1002F600629FF001729FBB27F00DB11D639FAA2775
:10030600F00DB11DAA1F649F6627B00DA11D661FC3
:10031600829F2227B00DA11D621F739FB00DA11DE4
:10032600621F839FA00D611D221F749F3327A00D9E
:10033600611D231F849F600D211D822F762F6A2F3A
:1003460011249F5750409AF0F1F088234AF0EE0F9F
:10035600FF1FBB1F661F771F881F91505040A9F7CC
:100366009E3F510580F00C9473020C945F025F3F30
:10037600E4F3983ED4F3869577956795B795F79508
:10038600E7959F5FC1F7FE2B880F911D9695879580
:0403960097F9089536
:10039A000E94280288F09F5798F0B92F9927B751E1
:1003AA00B0F0E1F0660F771F881F991F1AF0BA950F
:1003BA00C9F714C0B13091F00E945E02B1E008950D
:1003CA000C945E02672F782F8827B85F39F0B93FFF
:1003DA00CCF3869577956795B395D9F73EF49095C2
:0E03EA008095709561957F4F8F4F9F4F0895BE
:1003F800990F0008550FAA0BE0E8FEEF161617062E
:10040800E807F907C0F012161306E407F50798F095
:10041800621B730B840B950B39F40A2661F0232BAE
:10042800242B252B21F408950A2609F4A140A6952A
:080438008FEF811D811D089565
:1004400057FD9058440F551F59F05F3F71F0479585
:10045000880F97FB991F61F09F3F79F0879508956A
:10046000121613061406551FF2CF4695F1DF08C089
:10047000161617061806991FF1CF869571056105A6
:04048000089408953F
:10048400092E0394000C11F4882352F0BB0F40F49E
:10049400BF2B11F460FF04C06F5F7F4F8F4F9F4FDE
:0204A4000895B9
:1004A600EC010E948F020E948E02CE010E949002F1
:0604B600CE010E948C0241
:0E04BC00E894BB2766277727CB0197F90895B0
:0E04CA0000240A94161617061806090608954F
:0E04D80000240A941216130614060506089551
:0C04E60097F99F6780E870E060E00895DF
:0A04F2000E94FC0108F481E0089567
:0A04FC000E94FC0108F48FEF089540
:080506000E9463010C94420203
:06050E009FEF80EC089550
:040514000C94000043
:040518000E945A00E3
:02051C00089540
:02051E0008953E
:0205200008953C
:00000001FF
